010010101ANTIOQUIA   MEDELLIN                      SEC. ESC. LA ESPERANZA NO 2             4000049750000743900003201COMUNA 1 POPULAR              
010010102ANTIOQUIA   MEDELLIN                      INST.EDUC. LA CANDELARIA                4000105950000675000004501COMUNA 1 POPULAR              
010010103ANTIOQUIA   MEDELLIN                      IE.MARIA DE LOS ANGELES CANO MARQUEZ    4000041400000339200002001COMUNA 1 POPULAR              
010010104ANTIOQUIA   MEDELLIN                      SEC. ESC. MEDELLIN                      4000046550000371600002201COMUNA 1 POPULAR              
010010105ANTIOQUIA   MEDELLIN                      I.E.FE Y ALEGRIA GRANIZAL               4000015670000140000000801COMUNA 1 POPULAR              
010010106ANTIOQUIA   MEDELLIN                      IE LA AVANZADA                          4000006640000044900000301COMUNA 1 POPULAR              
010010107ANTIOQUIA   MEDELLIN                      SEC. ESC. CARPINELO AMAPOLITA           4000004670000035600000301COMUNA 1 POPULAR              
010010108ANTIOQUIA   MEDELLIN                      IE ANTONIO DERKA                        4000018240000154800000901COMUNA 1 POPULAR              
010010201ANTIOQUIA   MEDELLIN                      SEC.ESC. PABLO VI                       4000055470001756200005901COMUNA 1 POPULAR              
010010202ANTIOQUIA   MEDELLIN                      SEC. ESC. DIVINA PROVIDENCIA            4000090310000271900003001COMUNA 1 POPULAR              
010010203ANTIOQUIA   MEDELLIN                      SEC.ESC.AGRIPINA MONTES DEL VALLE       4000052370000338800002201COMUNA 1 POPULAR              
010010204ANTIOQUIA   MEDELLIN                      I.E.FEDERICO CARRASQUILLA               4000016410000128800000801COMUNA 1 POPULAR              
010010205ANTIOQUIA   MEDELLIN                      I.E.GUADALUPE                           4000059850000204200002101COMUNA 1 POPULAR              
010010301ANTIOQUIA   MEDELLIN                      I.E.  ASIA IGNACIANA                    4000074800000681700003702COMUNA 2 SANTA CRUZ           
010010302ANTIOQUIA   MEDELLIN                      SEC.ESC.  MANUEL URIBE ANGEL            4000077170000559500003402COMUNA 2 SANTA CRUZ           
010010303ANTIOQUIA   MEDELLIN                      SEC.ESC. REPUB. DE NICARAGUA            4000048010000354800002202COMUNA 2 SANTA CRUZ           
010010304ANTIOQUIA   MEDELLIN                      I.E.FE Y ALEGRIA J.MARIA VELAZ          4000015300000103900000702COMUNA 2 SANTA CRUZ           
010010401ANTIOQUIA   MEDELLIN                      I.E. BARRIO SANTA CRUZ                  4000051630000421400002402COMUNA 2 SANTA CRUZ           
010010402ANTIOQUIA   MEDELLIN                      SEC. ESC. ARZOBISPO GARCIA              4000054080000422300002502COMUNA 2 SANTA CRUZ           
010010403ANTIOQUIA   MEDELLIN                      I.E. REPUBLICA DE HONDURAS              4000046050000353700002102COMUNA 2 SANTA CRUZ           
010010501ANTIOQUIA   MEDELLIN                      I.E. REPUBLICA DE BARBADOS              4000087560000662300004003COMUNA 3 MANRIQUE             
010010502ANTIOQUIA   MEDELLIN                      IE LAS NIEVES                           4000054550000432500002503COMUNA 3 MANRIQUE             
010010503ANTIOQUIA   MEDELLIN                      I.E. MANUELA BELTRAN                    4000112610000600100004403COMUNA 3 MANRIQUE             
010010504ANTIOQUIA   MEDELLIN                      SEC.ESC.SAN JOSE I.E. MAN BEL           4000059320000802300003603COMUNA 3 MANRIQUE             
010010505ANTIOQUIA   MEDELLIN                      I.E.RAMON MUNERA LOPERA                 4000020050000144800000903COMUNA 3 MANRIQUE             
010010506ANTIOQUIA   MEDELLIN                      IE BELLO ORIENTE                        4000006540000048200000303COMUNA 3 MANRIQUE             
010010507ANTIOQUIA   MEDELLIN                      IE JOSE ROBERTO VASQUEZ                 4000007710000060900000403COMUNA 3 MANRIQUE             
010010601ANTIOQUIA   MEDELLIN                      I.E. JOSE ANTONIO GALAN                 4000064760000543900003103COMUNA 3 MANRIQUE             
010010602ANTIOQUIA   MEDELLIN                      I.E. HERNAN TORO AGUDELO                4000074930000599100003503COMUNA 3 MANRIQUE             
010010603ANTIOQUIA   MEDELLIN                      SEC ESC SUSANA DIAZ IE RODRIGO L BONILLA4000039720000384600002003COMUNA 3 MANRIQUE             
010010604ANTIOQUIA   MEDELLIN                      IE SAN JUAN BAUTISTA DE LA SALLE        4000012850000104500000603COMUNA 3 MANRIQUE             
010010701ANTIOQUIA   MEDELLIN                      COL AGUSTINIANO DE SAN NICOLAS          4000076780000652400003704COMUNA 4 ARANJUEZ             
010010702ANTIOQUIA   MEDELLIN                      I.E. MONSEÑOR FCO. CRISTOBAL T          4000065960000532900003104COMUNA 4 ARANJUEZ             
010010703ANTIOQUIA   MEDELLIN                      I.E. GILBERTO ALZATE AVENDAÑO           4000067680000590600003304COMUNA 4 ARANJUEZ             
010010704ANTIOQUIA   MEDELLIN                      I.E. CAMPO VALDES                       4000054590000458100002604COMUNA 4 ARANJUEZ             
010010705ANTIOQUIA   MEDELLIN                      I.E.SAN JUAN BOSCO                      4000013030000080400000604COMUNA 4 ARANJUEZ             
010010706ANTIOQUIA   MEDELLIN                      IE JOSE EUSEVIO CARO                    4000006430000059700000404COMUNA 4 ARANJUEZ             
010010707ANTIOQUIA   MEDELLIN                      IE LORENZA VILLEGAS DE SANTOS           4000008290000055600000404COMUNA 4 ARANJUEZ             
010010708ANTIOQUIA   MEDELLIN                      SEC ESC TOMAS CARRASQUILLA              4000002940000026200000204COMUNA 4 ARANJUEZ             
010010801ANTIOQUIA   MEDELLIN                      I.E. ALFONSO MORA NARANJO               4000061350000519800002904COMUNA 4 ARANJUEZ             
010010802ANTIOQUIA   MEDELLIN                      I.E. JOSE MARIA BRAVO MARQUEZ           4000037060000310700001804COMUNA 4 ARANJUEZ             
010010803ANTIOQUIA   MEDELLIN                      I.E. FRANCISCO MIRANDA                  4000092060000732400004204COMUNA 4 ARANJUEZ             
010010804ANTIOQUIA   MEDELLIN                      I.E. JAVIERA LONDOÑO                    4000056990000559800002904COMUNA 4 ARANJUEZ             
010010805ANTIOQUIA   MEDELLIN                      I.E. EL BOSQUE                          4000026510000236100001304COMUNA 4 ARANJUEZ             
010010806ANTIOQUIA   MEDELLIN                      SEC ESC JULIO ARBOLEDA                  4000007250000058600000404COMUNA 4 ARANJUEZ             
010010901ANTIOQUIA   MEDELLIN                      I.E. JULIO CESAR GARCIA                 4000059360000487000002805COMUNA 5 CASTILLA             
010010902ANTIOQUIA   MEDELLIN                      SEC. ESC. EDUARDO URIBE BOTERO          4000053720000438000002505COMUNA 5 CASTILLA             
010010903ANTIOQUIA   MEDELLIN                      I.E. PBRO. ANTONIO JOSE BERNAL          4000079840000774700004005COMUNA 5 CASTILLA             
010010904ANTIOQUIA   MEDELLIN                      I.E.SEBASTIAN DE BELALCAZAR             4000014760000116600000705COMUNA 5 CASTILLA             
010010905ANTIOQUIA   MEDELLIN                      SEC ESC TRICENTENARIO                   4000047540000405200002305COMUNA 5 CASTILLA             
010010906ANTIOQUIA   MEDELLIN                      SEC ESC TOSCANA                         4000010650000088200000505COMUNA 5 CASTILLA             
010011001ANTIOQUIA   MEDELLIN                      I.E. MARIA MONTESSORI                   4000071400000530000003205COMUNA 5 CASTILLA             
010011002ANTIOQUIA   MEDELLIN                      ITM CASTILLA                            4000085880000755400004105COMUNA 5 CASTILLA             
010011003ANTIOQUIA   MEDELLIN                      I.E. DINAMARCA                          4000024240000204100001205COMUNA 5 CASTILLA             
010011004ANTIOQUIA   MEDELLIN                      I.E. REPUBLICA DE URUGUAY               4000071220000580900003305COMUNA 5 CASTILLA             
010011005ANTIOQUIA   MEDELLIN                      IE FELIX DE BEDOUT MORENO               4000020230000160200001005COMUNA 5 CASTILLA             
010011101ANTIOQUIA   MEDELLIN                      I.E. CIUDADELA LAS AMERICAS             4000062340000495800002906COMUNA 6 DOCE DE OCTUBRE      
010011102ANTIOQUIA   MEDELLIN                      I.E. PROGRESAR                          4000043830000350600002106COMUNA 6 DOCE DE OCTUBRE      
010011103ANTIOQUIA   MEDELLIN                      SEC. ESC. LEON DE GREIFF                4000043100000309800001906COMUNA 6 DOCE DE OCTUBRE      
010011104ANTIOQUIA   MEDELLIN                      I.E. DOCE DE OCTUBRE                    4000044580000316600002006COMUNA 6 DOCE DE OCTUBRE      
010011105ANTIOQUIA   MEDELLIN                      CASD JOSE MARIA ESPINOSA PRIETO         4000010300000090600000506COMUNA 6 DOCE DE OCTUBRE      
010011106ANTIOQUIA   MEDELLIN                      I.E. EL TRIUNFO SANTA TERESA            4000013260000105100000706COMUNA 6 DOCE DE OCTUBRE      
010011107ANTIOQUIA   MEDELLIN                      IE SANTA JUANA DE LESTONACC             4000038520000343500001906COMUNA 6 DOCE DE OCTUBRE      
010011108ANTIOQUIA   MEDELLIN                      IE JESUS MARIA VALLE JARAMILLO          4000015740000130900000806COMUNA 6 DOCE DE OCTUBRE      
010011201ANTIOQUIA   MEDELLIN                      I.E.MAESTRO FERNANDO BOTERO             4000061850000491700002906COMUNA 6 DOCE DE OCTUBRE      
010011202ANTIOQUIA   MEDELLIN                      I.E.ALFREDO COCK ARANGO                 4000056670000460200002706COMUNA 6 DOCE DE OCTUBRE      
010011203ANTIOQUIA   MEDELLIN                      SEC.ESC.SAN MARTIN DE PORRES            4000038810000285800001806COMUNA 6 DOCE DE OCTUBRE      
010011204ANTIOQUIA   MEDELLIN                      I.E. KENNEDY                            4000068780000476200003006COMUNA 6 DOCE DE OCTUBRE      
010011205ANTIOQUIA   MEDELLIN                      SEC.CONCENTRACION EDUC.KENNEDY          4000037820000343000001906COMUNA 6 DOCE DE OCTUBRE      
010011206ANTIOQUIA   MEDELLIN                      I.E.JORGE ELIECER GAITAN(PPAL)          4000014820000097000000706COMUNA 6 DOCE DE OCTUBRE      
010011207ANTIOQUIA   MEDELLIN                      SEC. ESC. PEDREGAL                      4000021470000201400001106COMUNA 6 DOCE DE OCTUBRE      
010011208ANTIOQUIA   MEDELLIN                      I.E.LA ESPERANZA                        4000014370000099000000706COMUNA 6 DOCE DE OCTUBRE      
010011301ANTIOQUIA   MEDELLIN                      I.E. SAN VICENTE DE PAUL                4000056910000465000002707COMUNA 7 ROBLEDO              
010011302ANTIOQUIA   MEDELLIN                      SEC.ESC. EL DIAMANTE                    4000059470000424100002607COMUNA 7 ROBLEDO              
010011303ANTIOQUIA   MEDELLIN                      I.E.EL DIAMANTE (SEDE BTO)              4000038610000360900001907COMUNA 7 ROBLEDO              
010011304ANTIOQUIA   MEDELLIN                      I.E.FE Y ALEGRIA VILLA DE LA C          4000072090000556600003307COMUNA 7 ROBLEDO              
010011305ANTIOQUIA   MEDELLIN                      I.E.FE Y ALEGRIA SAN JOSE               4000026600000176100001207COMUNA 7 ROBLEDO              
010011306ANTIOQUIA   MEDELLIN                      TECNOLOGICO DE ANTIOQUIA                4000047850000376300002207COMUNA 7 ROBLEDO              
010011307ANTIOQUIA   MEDELLIN                      IE JESUS REY                            4000020700000156200001007COMUNA 7 ROBLEDO              
010011308ANTIOQUIA   MEDELLIN                      IE AURES                                4000014500000112700000707COMUNA 7 ROBLEDO              
010011401ANTIOQUIA   MEDELLIN                      I.E.MON. GERARDO VALENCIA CAN           4000026400000191100001207COMUNA 7 ROBLEDO              
010011402ANTIOQUIA   MEDELLIN                      I.E. JORGE ROBLEDO                      4000070720000583500003307COMUNA 7 ROBLEDO              
010011403ANTIOQUIA   MEDELLIN                      I.E.MARISCAL ROBLEDO                    4000034680000382700001907COMUNA 7 ROBLEDO              
010011404ANTIOQUIA   MEDELLIN                      SEC.ESC. SANTA MARGARITA                4000041780000310800001907COMUNA 7 ROBLEDO              
010011405ANTIOQUIA   MEDELLIN                      COLEGIO FERRINI                         4000056800000473100002707COMUNA 7 ROBLEDO              
010011406ANTIOQUIA   MEDELLIN                      I.E.CAMILO MORA CARRASQUILLA            4000016360000139300000807COMUNA 7 ROBLEDO              
010011407ANTIOQUIA   MEDELLIN                      COL MAYOR DE ANTIOQUIA                  4000021100000179500001007COMUNA 7 ROBLEDO              
010011408ANTIOQUIA   MEDELLIN                      IE BARRIO OLAYA HERRERA                 4000008190000054000000407COMUNA 7 ROBLEDO              
010011501ANTIOQUIA   MEDELLIN                      I.E. JUAN DE DIOS CARVAJAL              4000055600000496300002708COMUNA 8 VILLA HERMOSA        
010011502ANTIOQUIA   MEDELLIN                      I.E. JUAN DE LA CRUZ POSADA             4000031500000244400001508COMUNA 8 VILLA HERMOSA        
010011503ANTIOQUIA   MEDELLIN                      I.E.JOSE CELESTINO MUTIS                4000019450000157700000908COMUNA 8 VILLA HERMOSA        
010011504ANTIOQUIA   MEDELLIN                      INST.METROPOLITANO (I.T.M)              4000009650000094200000508COMUNA 8 VILLA HERMOSA        
010011505ANTIOQUIA   MEDELLIN                      SEC.ESC.JULIA AGUDELO                   4000122710000937500005508COMUNA 8 VILLA HERMOSA        
010011506ANTIOQUIA   MEDELLIN                      SEC.ESC.NIÑO JESUS DE PRAGA             4000018640000123100000808COMUNA 8 VILLA HERMOSA        
010011507ANTIOQUIA   MEDELLIN                      I.E.SOL DE ORIENTE                      4000018560000153200000908COMUNA 8 VILLA HERMOSA        
010011508ANTIOQUIA   MEDELLIN                      IE LUIS CARLOS GALAN SARMIENTO PPAL     4000013980000125700000708COMUNA 8 VILLA HERMOSA        
010011509ANTIOQUIA   MEDELLIN                      IE ESC NORMAL SUPERIOR DE MEDELLIN      4000004890000037700000308COMUNA 8 VILLA HERMOSA        
010011601ANTIOQUIA   MEDELLIN                      I.E. VILLA TURBAY                       4000024900000184200001108COMUNA 8 VILLA HERMOSA        
010011602ANTIOQUIA   MEDELLIN                      SEC.ESCUELA LAS ESTANCIAS               4000017370000131900000808COMUNA 8 VILLA HERMOSA        
010011603ANTIOQUIA   MEDELLIN                      SEC.ESC.SOR MARIA LUISA COURB           4000047900000361900002208COMUNA 8 VILLA HERMOSA        
010011604ANTIOQUIA   MEDELLIN                      I.E. SAN FRANCISCO DE ASIS              4000039440000325500001908COMUNA 8 VILLA HERMOSA        
010011605ANTIOQUIA   MEDELLIN                      IE FELIX HENAO BOTERO                   4000036670000304400001808COMUNA 8 VILLA HERMOSA        
010011606ANTIOQUIA   MEDELLIN                      IE GABRIEL GARCIA MARQUEZ               4000001670000010300000108COMUNA 8 VILLA HERMOSA        
010011701ANTIOQUIA   MEDELLIN                      I.E.GUADALUPANO LA SALLE                4000072460000572500003309COMUNA 9 BUENOS AIRES         
010011702ANTIOQUIA   MEDELLIN                      I.E. MERCEDITAS GOMEZ MARTINE           4000065460000493800003009COMUNA 9 BUENOS AIRES         
010011703ANTIOQUIA   MEDELLIN                      I.E. MANUEL JOSE CAICEDO                4000050520000432900002409COMUNA 9 BUENOS AIRES         
010011704ANTIOQUIA   MEDELLIN                      I.E. LA MILAGROSA                       4000106380000837100004909COMUNA 9 BUENOS AIRES         
010011705ANTIOQUIA   MEDELLIN                      COLEGIO EUCARISTICO                     4000023910000187500001109COMUNA 9 BUENOS AIRES         
010011706ANTIOQUIA   MEDELLIN                      SENA SD BUENOS AIRES                    4000006410000066300000409COMUNA 9 BUENOS AIRES         
010011707ANTIOQUIA   MEDELLIN                      IE ARZOBISPO TULIO BOTERO SALAZAR       4000003630000026400000209COMUNA 9 BUENOS AIRES         
010011708ANTIOQUIA   MEDELLIN                      IE MADRE LAURA                          4000005360000046500000309COMUNA 9 BUENOS AIRES         
010011801ANTIOQUIA   MEDELLIN                      I.E. LORETO GABRIELA GOMEZ CA           4000044520000376800002109COMUNA 9 BUENOS AIRES         
010011802ANTIOQUIA   MEDELLIN                      I.E.  FEDERICO OZANAM                   4000073370000662300003609COMUNA 9 BUENOS AIRES         
010011803ANTIOQUIA   MEDELLIN                      ESCUELA NORMAL SUPERIOR ANT.            4000048830000381000002309COMUNA 9 BUENOS AIRES         
010011804ANTIOQUIA   MEDELLIN                      SEC. ESC. JOSE DE SAN MARTIN            4000060600000495200002809COMUNA 9 BUENOS AIRES         
010011805ANTIOQUIA   MEDELLIN                      SEC. ESC. JUAN CANCIO RESTREPO          4000005630000042800000309COMUNA 9 BUENOS AIRES         
010011901ANTIOQUIA   MEDELLIN                      I.E. TULIO OSPINA                       4000061390000595900003110COMUNA 10 LA CANDELARIA       
010011902ANTIOQUIA   MEDELLIN                      SEC.ESC.AGUSTIN NIETO CABALLE           4000015520000127500000810COMUNA 10 LA CANDELARIA       
010011903ANTIOQUIA   MEDELLIN                      COLEGIO SALESIANO EL SUFRAGIO           4000085310000719600004010COMUNA 10 LA CANDELARIA       
010011904ANTIOQUIA   MEDELLIN                      I.E. CEFA                               4000095670000586700004010COMUNA 10 LA CANDELARIA       
010011905ANTIOQUIA   MEDELLIN                      I.E. HECTOR ABAD GOMEZ                  4000034170000648900002610COMUNA 10 LA CANDELARIA       
010011906ANTIOQUIA   MEDELLIN                      IE JAVIER A LONDOÑO                     4000011190000098500000610COMUNA 10 LA CANDELARIA       
010011907ANTIOQUIA   MEDELLIN                      I.T.M. (PRADO CENTRO)                   4000010200000115700000610COMUNA 10 LA CANDELARIA       
010012001ANTIOQUIA   MEDELLIN                      CENTRO COMERCIAL SAN DIEGO              4000094660000779200004410COMUNA 10 LA CANDELARIA       
010012002ANTIOQUIA   MEDELLIN                      ALCALDIA MUNICIPAL (SOTANO)             4000058080000784300003510COMUNA 10 LA CANDELARIA       
010012003ANTIOQUIA   MEDELLIN                      SENA                                    4000024100000375000001610COMUNA 10 LA CANDELARIA       
010012004ANTIOQUIA   MEDELLIN                      UNIVERSIDAD CLARETIANA                  4000007450000071000000410COMUNA 10 LA CANDELARIA       
010012101ANTIOQUIA   MEDELLIN                      INSTITUTO JORGE ROBLEDO                 4000050320000433900002411COMUNA 11 LAURELES            
010012102ANTIOQUIA   MEDELLIN                      INST.EDUC. MATER DEI                    4000064100000486600002911COMUNA 11 LAURELES            
010012103ANTIOQUIA   MEDELLIN                      I.E. MARCO FIDEL SUAREZ                 4000052850000544000002811COMUNA 11 LAURELES            
010012104ANTIOQUIA   MEDELLIN                      COLEGIO CALASANZ FEMENINO               4000047630000341800002111COMUNA 11 LAURELES            
010012105ANTIOQUIA   MEDELLIN                      COL SAN IGNACIO SD MAYORES              4000013180000136700000711COMUNA 11 LAURELES            
010012106ANTIOQUIA   MEDELLIN                      SEC. ESC. CARLOS OBANDO VELASCO         4000005350000043200000311COMUNA 11 LAURELES            
010012201ANTIOQUIA   MEDELLIN                      SEC.ESC. AGRUPACION COLOMBIA            4000068250000520700003111COMUNA 11 LAURELES            
010012202ANTIOQUIA   MEDELLIN                      I.E. LUCRECIO JARAMILLO VELEZ           4000098940000733000004411COMUNA 11 LAURELES            
010012203ANTIOQUIA   MEDELLIN                      COLEGIO BETLEHEMITAS                    4000030650000208200001411COMUNA 11 LAURELES            
010012204ANTIOQUIA   MEDELLIN                      COL.SAN IGNACIO (SEC.INFANTIL)          4000017430000152300000911COMUNA 11 LAURELES            
010012205ANTIOQUIA   MEDELLIN                      UNIVERSIDAD ADVENTISTA                  4000019370000159400000911COMUNA 11 LAURELES            
010012206ANTIOQUIA   MEDELLIN                      UNIVERSIDAD PONTIFICIA BOLIVARIANA      4000044340000364500002111COMUNA 11 LAURELES            
010012301ANTIOQUIA   MEDELLIN                      SEC. ESC. SANTA LUCIA                   4000066840000489200003012COMUNA 12 LA AMERICA          
010012302ANTIOQUIA   MEDELLIN                      I.E. CONCEJO DE MEDELLIN                4000111190000907600005212COMUNA 12 LA AMERICA          
010012303ANTIOQUIA   MEDELLIN                      I.E. LA PIEDAD                          4000057390000419300002612COMUNA 12 LA AMERICA          
010012304ANTIOQUIA   MEDELLIN                      I.E.SANTA ROSA DE LIMA                  4000023140000177800001112COMUNA 12 LA AMERICA          
010012305ANTIOQUIA   MEDELLIN                      IE LOLA GONZALEZ                        4000014880000106400000712COMUNA 12 LA AMERICA          
010012306ANTIOQUIA   MEDELLIN                      INST FERRINI CALASANZ                   4000012610000106900000612COMUNA 12 LA AMERICA          
010012401ANTIOQUIA   MEDELLIN                      I.E. RAFAEL URIBE URIBE                 4000057920000433500002612COMUNA 12 LA AMERICA          
010012402ANTIOQUIA   MEDELLIN                      SEC.ESC.RAFAEL URIBE URIBE              4000021340000207200001112COMUNA 12 LA AMERICA          
010012403ANTIOQUIA   MEDELLIN                      SEC. ESC. PEDRO DE CASTRO               4000076340000607000003512COMUNA 12 LA AMERICA          
010012404ANTIOQUIA   MEDELLIN                      I.E.FRANCISCO ANTONIO ZEA               4000022550000174500001112COMUNA 12 LA AMERICA          
010012405ANTIOQUIA   MEDELLIN                      I.E AMERICA                             4000014180000109100000712COMUNA 12 LA AMERICA          
010012406ANTIOQUIA   MEDELLIN                      I.E.SAMUEL BARRIENTOS                   4000009960000079000000512COMUNA 12 LA AMERICA          
010012407ANTIOQUIA   MEDELLIN                      LICEO SALAZAR Y HERRERA                 4000027540000202900001312COMUNA 12 LA AMERICA          
010012501ANTIOQUIA   MEDELLIN                      I.E. BLANQUIZAL                         4000031170000248400001513COMUNA 13 SAN JAVIER          
010012502ANTIOQUIA   MEDELLIN                      SEC. ESC. REPUBLICA DE PANAMA           4000034450000273800001613COMUNA 13 SAN JAVIER          
010012503ANTIOQUIA   MEDELLIN                      I.E JUAN XXIII                          4000022230000178300001113COMUNA 13 SAN JAVIER          
010012504ANTIOQUIA   MEDELLIN                      SEC. ESC. MONSEÑOR PERDOMO              4000079960000353400003013COMUNA 13 SAN JAVIER          
010012505ANTIOQUIA   MEDELLIN                      SEC.ESC.PIO XII                         4000036010000541400002313COMUNA 13 SAN JAVIER          
010012506ANTIOQUIA   MEDELLIN                      I.E.STELLA VELEZ LONDOÑO                4000009940000069000000513COMUNA 13 SAN JAVIER          
010012507ANTIOQUIA   MEDELLIN                      SEC ESC JUAN DE DIOS ARANZAZU           4000003090000025500000213COMUNA 13 SAN JAVIER          
010012601ANTIOQUIA   MEDELLIN                      I.E.LA INDEPENDENCIA                    4000083470000629100003813COMUNA 13 SAN JAVIER          
010012602ANTIOQUIA   MEDELLIN                      SEC.ESC.EL SOCORRO                      4000058000000476500002713COMUNA 13 SAN JAVIER          
010012603ANTIOQUIA   MEDELLIN                      SEC.ESC.MIXTA BETANIA                   4000054060000396700002413COMUNA 13 SAN JAVIER          
010012604ANTIOQUIA   MEDELLIN                      I.E.EL CORAZON                          4000015770000118100000713COMUNA 13 SAN JAVIER          
010012605ANTIOQUIA   MEDELLIN                      I.E.EDUARDO SANTOS                      4000017760000128700000813COMUNA 13 SAN JAVIER          
010012606ANTIOQUIA   MEDELLIN                      I.E.CARLOS VIECO                        4000031940000244200001513COMUNA 13 SAN JAVIER          
010012607ANTIOQUIA   MEDELLIN                      SEDE AMOR AL NIÑO                       4000014620000119300000713COMUNA 13 SAN JAVIER          
010012701ANTIOQUIA   MEDELLIN                      COL.SANTA MARIA DEL ROSARIO             4000059260000460300002714COMUNA 14 EL POBLADO          
010012702ANTIOQUIA   MEDELLIN                      COL.MARYMOUNT                           4000059830000482900002814COMUNA 14 EL POBLADO          
010012703ANTIOQUIA   MEDELLIN                      COLEGIO SAN LUCAS                       4000019950000165800001014COMUNA 14 EL POBLADO          
010012704ANTIOQUIA   MEDELLIN                      ESC GUILLERMO ECHAVARRIA MISAS          4000017890000146800000914COMUNA 14 EL POBLADO          
010012801ANTIOQUIA   MEDELLIN                      POLITECNICO JAIME ISAZA CADAVI          4000055400000490500002714COMUNA 14 EL POBLADO          
010012802ANTIOQUIA   MEDELLIN                      INEM JOSE FELIX DE RESTREP              4000052250000748500003314COMUNA 14 EL POBLADO          
010012803ANTIOQUIA   MEDELLIN                      UNIVERSIDAD EAFIT                       4000104050000570200004114COMUNA 14 EL POBLADO          
010012804ANTIOQUIA   MEDELLIN                      COL DE LA CIA DE MARIA LA ENSE          4000069750000426900002914COMUNA 14 EL POBLADO          
010012805ANTIOQUIA   MEDELLIN                      SAN JOSE DE LAS VEGAS                   4000036540000376800001914COMUNA 14 EL POBLADO          
010012901ANTIOQUIA   MEDELLIN                      COLEGIO CAMILO C RESTREPO               4000040280000323300001915COMUNA 15 GUAYABAL            
010012902ANTIOQUIA   MEDELLIN                      I.E.BENJAMIN HERRERA                    4000041900000337700002015COMUNA 15 GUAYABAL            
010012903ANTIOQUIA   MEDELLIN                      I.E.CRISTO REY                          4000063770000525000003015COMUNA 15 GUAYABAL            
010012904ANTIOQUIA   MEDELLIN                      SECCION ESC REPUBLICA DE COSTA RICA     4000047890000386600002215COMUNA 15 GUAYABAL            
010012905ANTIOQUIA   MEDELLIN                      SEC.ESC.LA COLINA                       4000032940000268900001615COMUNA 15 GUAYABAL            
010012906ANTIOQUIA   MEDELLIN                      I.E. LA SALLE CAMPO AMOR                4000030710000249400001515COMUNA 15 GUAYABAL            
010012907ANTIOQUIA   MEDELLIN                      SEC ESC CRISTO REY APOLO                4000011090000096200000615COMUNA 15 GUAYABAL            
010013001ANTIOQUIA   MEDELLIN                      I.E. FATIMA NUTIBARA                    4000053360000429000002516COMUNA 16 BELEN               
010013002ANTIOQUIA   MEDELLIN                      ESC.SOFIA OSPINA DE NAVARRO             4000035520000306100001716COMUNA 16 BELEN               
010013003ANTIOQUIA   MEDELLIN                      I.E.JUAN MARIA CESPEDES                 4000100140000834600004716COMUNA 16 BELEN               
010013004ANTIOQUIA   MEDELLIN                      I.E. GUILLERMO VALENCIA                 4000050660000407300002416COMUNA 16 BELEN               
010013005ANTIOQUIA   MEDELLIN                      UNID.DEPORTIVA ANDRES ESCOBAR           4000016070000146900000816COMUNA 16 BELEN               
010013006ANTIOQUIA   MEDELLIN                      LICEO SAN RAFAEL                        4000047000000364900002216COMUNA 16 BELEN               
010013007ANTIOQUIA   MEDELLIN                      COLEGIO SAN JUAN BOSCO                  4000010760000068900000516COMUNA 16 BELEN               
010013101ANTIOQUIA   MEDELLIN                      SEC.ESC.JACKELINE KENNEDY               4000040540000286400001816COMUNA 16 BELEN               
010013102ANTIOQUIA   MEDELLIN                      I.E.JOSE MARIA BERNAL                   4000056410000445200002616COMUNA 16 BELEN               
010013103ANTIOQUIA   MEDELLIN                      INST.SAN CARLOS DE LA SALLE             4000071100000562400003316COMUNA 16 BELEN               
010013104ANTIOQUIA   MEDELLIN                      I.E.ALCALDIA DE MEDELLIN                4000069850000563600003316COMUNA 16 BELEN               
010013105ANTIOQUIA   MEDELLIN                      COLEGIO PADRE MANYANET                  4000049770000401000002316COMUNA 16 BELEN               
010013106ANTIOQUIA   MEDELLIN                      I.E.CAMPILLAS DEL ROSARIO               4000017770000131100000816COMUNA 16 BELEN               
010013107ANTIOQUIA   MEDELLIN                      IE ANTONIO RICAURTE                     4000014600000116600000716COMUNA 16 BELEN               
010013108ANTIOQUIA   MEDELLIN                      COL LA INMACULADA                       4000023090000161000001016COMUNA 16 BELEN               
010013201ANTIOQUIA   MEDELLIN                      I.E.RAMON GIRALDO CEBALLOS              4000068410000527000003116COMUNA 16 BELEN               
010013202ANTIOQUIA   MEDELLIN                      UNIVERSIDAD DE MEDELLIN                 4000087820000767500004216COMUNA 16 BELEN               
010013203ANTIOQUIA   MEDELLIN                      I.E HORACIO MUÑOZ SUESCUN               4000053380000447700002516COMUNA 16 BELEN               
010013204ANTIOQUIA   MEDELLIN                      I.E.REPUBLICA DE VENEZUELA              4000042260000350300002016COMUNA 16 BELEN               
010013205ANTIOQUIA   MEDELLIN                      I. E. SAN ROBERTO BELARMINO             4000014030000112100000716COMUNA 16 BELEN               
010013206ANTIOQUIA   MEDELLIN                      INSTITUTO PEDRO JUSTO BERRIO            4000003810000038400000216COMUNA 16 BELEN               
010013207ANTIOQUIA   MEDELLIN                      IE PEDRO OCTAVIO AMADO                  4000001980000013200000116COMUNA 16 BELEN               
010019001ANTIOQUIA   MEDELLIN                      ESTADIO ATANASIO GIRARDOT               50000002100055116000070                                
010019002ANTIOQUIA   MEDELLIN                      PLAZA MAYOR CTRO EXPOS. CONVEN          50005308200000009000067                                
010019801ANTIOQUIA   MEDELLIN                      RECLU. DE MUJERES PEDREGAL ME           40000016100000057000001                                
010019802ANTIOQUIA   MEDELLIN                      ESTAB. CARCELARIO PEDREGAL ME           40000001700000168000001                                
010019803ANTIOQUIA   MEDELLIN                      CENTRO CARLOS LLERAS RESTREPO           40000006700000256000001                                
010019903ANTIOQUIA   MEDELLIN                      I.E. DEBORA ARANGO PEREZ                4000046490000383200002217CORREGIMIENTO ALTAVISTA       
010019910ANTIOQUIA   MEDELLIN                      IE FE Y ALEGRIA EL LIMONAR              4000056400000438300002618CORR.  SAN ANTONIO DE PRADO   
010019917ANTIOQUIA   MEDELLIN                      IE HECTOR ROGELIO MONTOYA               4000012770000122900000719CORREGIMIENTO PALMITAS        
010019933ANTIOQUIA   MEDELLIN                      CASA DE GOBIERNO SANTA ELENA            4000034550000321700001721CORREGIMIENTO SANTA ELENA     
0100199A1ANTIOQUIA   MEDELLIN                      IE SAN ANTONIO DE PRADO                 4000122980000592500004718CORR.  SAN ANTONIO DE PRADO   
0100199A2ANTIOQUIA   MEDELLIN                      I.E.MANUEL DE J.BETANCUR                4000060280000974800004118CORR.  SAN ANTONIO DE PRADO   
0100199A3ANTIOQUIA   MEDELLIN                      IE MONSEÑOR VICTOR WIEDEMANN            4000019580000155200000918CORR.  SAN ANTONIO DE PRADO   
0100199A4ANTIOQUIA   MEDELLIN                      CENTRO DE DESARROLLO SOCIAL (CDS)       4000015370000121000000718CORR.  SAN ANTONIO DE PRADO   
0100199A5ANTIOQUIA   MEDELLIN                      P BIBL JOSE HORACIO BETANCUR            4000007340000062300000418CORR.  SAN ANTONIO DE PRADO   
0100199B1ANTIOQUIA   MEDELLIN                      IE SAN CRISTOBAL                        4000095140000522300003820CORREGIMIENTO SAN CRISTOBAL   
0100199B2ANTIOQUIA   MEDELLIN                      PARQUE BIBLIOTECA FERNANDO BOTERO       4000060650000826600003720CORREGIMIENTO SAN CRISTOBAL   
0100199B3ANTIOQUIA   MEDELLIN                      IE LUSITANIA                            4000041840000272400001820CORREGIMIENTO SAN CRISTOBAL   
0100199B4ANTIOQUIA   MEDELLIN                      I.E. PRESBITERO JUAN J. ESCOBAR         4000023820000191000001120CORREGIMIENTO SAN CRISTOBAL   
0100199B5ANTIOQUIA   MEDELLIN                      IE LOMA HERMOSA                         4000011600000083100000620CORREGIMIENTO SAN CRISTOBAL   
010040000ANTIOQUIA   ABEJORRAL                     PUESTO CABECERA MUNICIPAL               40000628400006820000034                                
010049801ANTIOQUIA   ABEJORRAL                     CARCEL MUNICIPAL                        40000000100000009000001                                
010049901ANTIOQUIA   ABEJORRAL                     PANTANILLO                              40000045000000499000003                                
010049909ANTIOQUIA   ABEJORRAL                     CHAGUALAL                               40000023100000318000002                                
010049911ANTIOQUIA   ABEJORRAL                     GUAICO GRANDE                           40000015200000221000001                                
010049917ANTIOQUIA   ABEJORRAL                     PORTUGAL                                40000006100000079000001                                
010049940ANTIOQUIA   ABEJORRAL                     PURIMA                                  40000009000000090000001                                
010070000ANTIOQUIA   ABRIAQUI                      PUESTO CABECERA MUNICIPAL               40000066600000785000004                                
010079905ANTIOQUIA   ABRIAQUI                      LA ANTIGUA                              40000022600000290000002                                
010100000ANTIOQUIA   ALEJANDRIA                    PUESTO CABECERA MUNICIPAL               40000220800002350000012                                
010130101ANTIOQUIA   AMAGA                         E.U. ALEJANDRO TORO                     40000258500002111000012                                
010130102ANTIOQUIA   AMAGA                         I.E. NORMAL SUPERIOR AMAGA              40000392200000990000013                                
010130201ANTIOQUIA   AMAGA                         ALEJANDRO TORO MARIA AUXILIADORA        40000116500004274000014                                
010130202ANTIOQUIA   AMAGA                         COLISEO CTO JUAN MONTOYA CORREA         40000242800002515000013                                
010139801ANTIOQUIA   AMAGA                         CARCEL MUNICIPAL                        40000000800000025000001                                
010139901ANTIOQUIA   AMAGA                         I.E. RURAL URBANO RUIZ                  40000010100000117000001                                
010139903ANTIOQUIA   AMAGA                         EL CEDRO                                40000039200000395000002                                
010139904ANTIOQUIA   AMAGA                         I.E. SAN FERNANDO DE AMAGA              40000019000000225000002                                
010139905ANTIOQUIA   AMAGA                         LA CLARITA                              40000116400000955000006                                
010160001ANTIOQUIA   AMALFI                        IE EDUARDO FERNANDEZ BOTERO             40000540200005830000029                                
010160002ANTIOQUIA   AMALFI                        IE EDUARDO FERNANDEZ BOTERO SD B        40000320300003301000017                                
010169801ANTIOQUIA   AMALFI                        CARCEL MUNICIPAL                        40000000100000045000001                                
010169910ANTIOQUIA   AMALFI                        PORTACHUELO                             40000024500000329000002                                
010190101ANTIOQUIA   ANDES                         COLISEO PEDRO ANTONIO RPO ESCO          40000142400001763000009                                
010190102ANTIOQUIA   ANDES                         COL SAN JUAN DE LOS ANDES               40000301400002868000015                                
010190103ANTIOQUIA   ANDES                         CERUR LA AGUADA                         40000011900000089000001                                
010190201ANTIOQUIA   ANDES                         COL MARCO FIDEL SUAREZ                  40000240900002696000013                                
010190202ANTIOQUIA   ANDES                         CENTRO DE BIENESTAR SOCIAL              40000192400001871000010                                
010190203ANTIOQUIA   ANDES                         PLACA POLIDEPORTIVA                     40000055200000460000003                                
010199001ANTIOQUIA   ANDES                         COLEGIO JUAN DE DIOS URIBE              50000301000003830000009                                
010199801ANTIOQUIA   ANDES                         CARCEL                                  40000001500000088000001                                
010199901ANTIOQUIA   ANDES                         BUENOS AIRES                            40000054300000641000004                                
010199903ANTIOQUIA   ANDES                         LA CHAPARRALA                           40000016800000193000001                                
010199905ANTIOQUIA   ANDES                         SAN JOSE                                40000040400000482000003                                
010199906ANTIOQUIA   ANDES                         SAN BARTOLO                             40000016000000161000001                                
010199909ANTIOQUIA   ANDES                         SANTA INES                              40000060400000760000004                                
010199913ANTIOQUIA   ANDES                         SANTA RITA                              40000113300001256000007                                
010199917ANTIOQUIA   ANDES                         TAPARTO                                 40000104200001132000006                                
010199923ANTIOQUIA   ANDES                         SAN PERUCHITO                           40000046700000555000003                                
010220000ANTIOQUIA   ANGELOPOLIS                   PUESTO CABECERA MUNICIPAL               40000241200002624000013                                
010229901ANTIOQUIA   ANGELOPOLIS                   ESTACION ANGELOPOLIS                    40000040200000405000003                                
010229970ANTIOQUIA   ANGELOPOLIS                   SANTA ANA                               40000003400000043000001                                
010250000ANTIOQUIA   ANGOSTURA                     PUESTO CABECERA MUNICIPAL               40000400300004431000022                                
010259906ANTIOQUIA   ANGOSTURA                     CANOAS                                  40000024700000255000002                                
010259912ANTIOQUIA   ANGOSTURA                     LA MONTAÑITA                            40000016900000170000001                                
010259915ANTIOQUIA   ANGOSTURA                     LLANOS DE CUIVA                         40000011200000066000001                                
010280000ANTIOQUIA   ANORI                         PUESTO CABECERA MUNICIPAL               40000465300005178000025                                
010289801ANTIOQUIA   ANORI                         CARCEL MUNICIPAL                        40000000000000007000001                                
010289903ANTIOQUIA   ANORI                         LA MESETA                               40000013800000224000001                                
010289905ANTIOQUIA   ANORI                         LIBERIA                                 40000024600000380000002                                
010289909ANTIOQUIA   ANORI                         EL ROBLE                                40000037700000412000003                                
010289913ANTIOQUIA   ANORI                         MADRE SECA                              40000014000000213000001                                
010289915ANTIOQUIA   ANORI                         EL CARMIN                               40000013800000247000001                                
010289916ANTIOQUIA   ANORI                         LA CASITA                               40000009000000139000001                                
010289937ANTIOQUIA   ANORI                         SANTO DOMINGO                           40000005500000092000001                                
010310101ANTIOQUIA   ANTIOQUIA                     I.E. SAN LUIS GONZAGA                   40000000000004546000012                                
010310102ANTIOQUIA   ANTIOQUIA                     COLISEO HERNAN SEPULVEDA                40000442100000372000013                                
010310201ANTIOQUIA   ANTIOQUIA                     IE ARTURO VELASQUEZ ORTIZ               40000301600002672000015                                
010310202ANTIOQUIA   ANTIOQUIA                     ESCUELA MARTINEZ PARDO                  40000257900002475000013                                
010319901ANTIOQUIA   ANTIOQUIA                     CATIVO                                  40000009000000084000001                                
010319904ANTIOQUIA   ANTIOQUIA                     EL PESCADO                              40000022700000264000002                                
010319905ANTIOQUIA   ANTIOQUIA                     LAURELES                                40000029200000371000002                                
010319907ANTIOQUIA   ANTIOQUIA                     LAS AZULES                              40000009800000138000001                                
010319909ANTIOQUIA   ANTIOQUIA                     TONUSCO ARRIBA                          40000018800000245000002                                
010319915ANTIOQUIA   ANTIOQUIA                     SABANAS                                 40000020800000268000002                                
010340000ANTIOQUIA   ANZA                          PUESTO CABECERA MUNICIPAL               40000179700001991000010                                
010349901ANTIOQUIA   ANZA                          GUINTAR                                 40000091500001085000006                                
010349930ANTIOQUIA   ANZA                          LA CEJITA                               40000026200000286000002                                
010350101ANTIOQUIA   APARTADO                      I.E ALFONSO LOPEZ                       4000042890000397300002101COMUNA 1 BERNARDO JARAMILLO   
010350102ANTIOQUIA   APARTADO                      I.E. POLICARPA SALAVARRIETA             4000044730000377800002101COMUNA 1 BERNARDO JARAMILLO   
010350103ANTIOQUIA   APARTADO                      I. E. LA PAZ                            4000024860000211300001201COMUNA 1 BERNARDO JARAMILLO   
010350104ANTIOQUIA   APARTADO                      I.E. LA PAZ SEDE 20 DE ENERO            4000012530000123500000701COMUNA 1 BERNARDO JARAMILLO   
010350105ANTIOQUIA   APARTADO                      I. E. SAN FRANCISCO DE ASIS             4000047540000418800002302COMUNA 2 OCHO DE FEBRERO      
010350106ANTIOQUIA   APARTADO                      I. E. SAN PEDRO CLAVER                  4000036950000382900002002COMUNA 2 OCHO DE FEBRERO      
010350107ANTIOQUIA   APARTADO                      HOGAR INFANTIL LOS GIRASOLES            4000024080000203500001202COMUNA 2 OCHO DE FEBRERO      
010350108ANTIOQUIA   APARTADO                      I. E. SANTA MARIA LA ANTIGUA            4000005940000047200000302COMUNA 2 OCHO DE FEBRERO      
010350201ANTIOQUIA   APARTADO                      I.E. HERACLIO MENA PADILLA              4000050250000303200002103COMUNA 3 PUEBLO NUEVO         
010350202ANTIOQUIA   APARTADO                      COLEGIO ADVENTISTA                      4000021740000333400001403COMUNA 3 PUEBLO NUEVO         
010350203ANTIOQUIA   APARTADO                      I.E CADENA LAS PLAYAS                   4000007410000074800000403COMUNA 3 PUEBLO NUEVO         
010350204ANTIOQUIA   APARTADO                      I. E. CAMPO ALEGRE                      4000009680000091000000504COMUNA 4 JOSE JOAQUIN VELEZ   
010350205ANTIOQUIA   APARTADO                      IE MADRE LAURA                          4000021070000284800001304COMUNA 4 JOSE JOAQUIN VELEZ   
010350206ANTIOQUIA   APARTADO                      COLEGIO COOPERATIVO                     4000025030000376100001604COMUNA 4 JOSE JOAQUIN VELEZ   
010350207ANTIOQUIA   APARTADO                      IE JOSE JOAQUIN VELEZ                   4000039420000371100002004COMUNA 4 JOSE JOAQUIN VELEZ   
010350208ANTIOQUIA   APARTADO                      I.E JOSE CELESTINO MUTIS                4000022630000210300001204COMUNA 4 JOSE JOAQUIN VELEZ   
010359001ANTIOQUIA   APARTADO                      COLIS.ANTONIO ROLDAN BETANCUR           50000368800003265000009                                
010359801ANTIOQUIA   APARTADO                      CARCEL                                  40000000900000132000001                                
010359915ANTIOQUIA   APARTADO                      CHURIDO                                 4000007520000074400000405CORREGIMIENTO CHURIDO PUEBLO  
010359921ANTIOQUIA   APARTADO                      PUERTO GIRON                            4000003640000035300000206CORREGIMIENTO PUERTO GIRON    
010359925ANTIOQUIA   APARTADO                      SAN JOSE DE APARTADO                    4000007770000106800000507CORR SAN JOSE DE APARTADO     
010359950ANTIOQUIA   APARTADO                      EL REPOSO                               4000024430000219700001208CORREGIMIENTO EL REPOSO       
010370000ANTIOQUIA   ARBOLETES                     PUESTO CABECERA MUNICIPAL               40000664400006311000033                                
010379903ANTIOQUIA   ARBOLETES                     BUENOS AIRES                            40000052100000629000003                                
010379905ANTIOQUIA   ARBOLETES                     EL CARMELO                              40000059000000741000004                                
010379906ANTIOQUIA   ARBOLETES                     SANTAFE DE LAS PLATAS                   40000053700000647000004                                
010379908ANTIOQUIA   ARBOLETES                     LAS NARANJITAS                          40000032900000417000002                                
010379912ANTIOQUIA   ARBOLETES                     GUADUAL                                 40000071000000886000005                                
010379920ANTIOQUIA   ARBOLETES                     LA CANDELARIA                           40000083100000957000005                                
010379975ANTIOQUIA   ARBOLETES                     LA TRINIDAD                             40000083500000978000005                                
010379980ANTIOQUIA   ARBOLETES                     PAJILLAL                                40000035300000422000002                                
010390000ANTIOQUIA   ARGELIA                       PUESTO CABECERA MUNICIPAL               40000281200003082000015                                
010399904ANTIOQUIA   ARGELIA                       EL PITAL                                40000007400000105000001                                
010399907ANTIOQUIA   ARGELIA                       EL ROSARIO SAN JULIAN                   40000011400000130000001                                
010399910ANTIOQUIA   ARGELIA                       GUADUALITO                              40000003000000059000001                                
010399920ANTIOQUIA   ARGELIA                       LA MARGARITA                            40000002500000039000001                                
010399925ANTIOQUIA   ARGELIA                       MESONES                                 40000001200000022000001                                
010399980ANTIOQUIA   ARGELIA                       SAN AGUSTIN                             40000009700000160000001                                
010400000ANTIOQUIA   ARMENIA                       PUESTO CABECERA MUNICIPAL               40000188000002140000011                                
010409901ANTIOQUIA   ARMENIA                       LA HERRADURA                            40000029300000311000002                                
010430101ANTIOQUIA   BARBOSA                       PBRO. LUIS EDUARDO PEREZ MOLIN          40000382000003070000018                                
010430102ANTIOQUIA   BARBOSA                       INST. EDUC. MANUEL JOSE CAICED          40000389400003960000020                                
010430103ANTIOQUIA   BARBOSA                       IE LUIS EDUARDO ARIAS                   40000162000005682000019                                
010430201ANTIOQUIA   BARBOSA                       BIBLIOTECA ISOLDA ECHAVARRIA M          40000156100002109000010                                
010430202ANTIOQUIA   BARBOSA                       COL. COOPERATIVO SIMÓN BOLIVAR          40000183600001187000008                                
010430203ANTIOQUIA   BARBOSA                       C.A.S DIEGO FERNANDEZ BARBOSA           40000424600000697000013                                
010430204ANTIOQUIA   BARBOSA                       UNIDAD DEPORTIVA LOS BUCAROS            40000294100003131000016                                
010439801ANTIOQUIA   BARBOSA                       CARCEL                                  40000000100000027000001                                
010439901ANTIOQUIA   BARBOSA                       EL HATILLO                              4000027060000243900001401CORREGIMIENTO EL HATILLO      
010460000ANTIOQUIA   BELMIRA                       PUESTO CABECERA MUNICIPAL               40000157200001632000009                                
010469901ANTIOQUIA   BELMIRA                       LABORES                                 40000018200000240000002                                
010469903ANTIOQUIA   BELMIRA                       LAS PLAYAS                              40000061900000671000004                                
010469904ANTIOQUIA   BELMIRA                       ZANCUDITO                               40000014100000084000001                                
010469905ANTIOQUIA   BELMIRA                       QUEBRADITAS                             40000001800000046000001                                
010490101ANTIOQUIA   BELLO                         IE BARRIO PARIS MEGACOLEGIO             4000021280000328500001401COMUNA 1 PARIS                
010490102ANTIOQUIA   BELLO                         I.E. ALBERTO DIAZ MUÑOZ                 4000040130000175200001501COMUNA 1 PARIS                
010490103ANTIOQUIA   BELLO                         I.E ALB. DIAZ MUÑOZ SECC.PRAD           4000014060000101300000701COMUNA 1 PARIS                
010490104ANTIOQUIA   BELLO                         CENTRO EDUCAT RAQUEL JARAMILLO          4000042650000345700002001COMUNA 1 PARIS                
010490105ANTIOQUIA   BELLO                         IE BARRIO PARIS                         4000020180000174500001001COMUNA 1 PARIS                
010490201ANTIOQUIA   BELLO                         I.E. ATANASIO GIRARDOT                  4000041530001143700004002COMUNA 2 MADERA               
010490202ANTIOQUIA   BELLO                         COLEGIO PARROQUIAL SAN FCO DE ASIS      4000058640000374100002502COMUNA 2 MADERA               
010490203ANTIOQUIA   BELLO                         IE SUAREZ DE LA PRESENTACION            4000088590000209300002802COMUNA 2 MADERA               
010490204ANTIOQUIA   BELLO                         COLEGIO SAN BUENAVENTURA                4000039110000335500001902COMUNA 2 MADERA               
010490205ANTIOQUIA   BELLO                         I.E. TOMAS CADAVID RESTREPO             4000045410000392000002203COMUNA 3 SANTA ANA            
010490301ANTIOQUIA   BELLO                         COLEGIO LA SALLE                        4000076810000610200003503COMUNA 3 SANTA ANA            
010490302ANTIOQUIA   BELLO                         I.E. FERNANDO VELEZ                     4000076700000560800003405COMUNA 5 LA CUMBRE            
010490303ANTIOQUIA   BELLO                         I.E. LA PRIMAVERA                       4000043310000334400002005COMUNA 5 LA CUMBRE            
010490304ANTIOQUIA   BELLO                         I.E. NAZARETH                           4000035270000349500001805COMUNA 5 LA CUMBRE            
010490305ANTIOQUIA   BELLO                         I.E. CARLOS PERES SEDE ROSALIA          4000015380000126700000805COMUNA 5 LA CUMBRE            
010490401ANTIOQUIA   BELLO                         INST. UNIVERSITARIA MARCO FIDEL SUAREZ  4000046640000472500002404COMUNA 4 SUAREZ               
010490402ANTIOQUIA   BELLO                         COL JESUS DE LA BUENA ESPERANZ          4000065980000848000003904COMUNA 4 SUAREZ               
010490403ANTIOQUIA   BELLO                         IE SAGRADO CORAZON                      4000022520000419400001704COMUNA 4 SUAREZ               
010490501ANTIOQUIA   BELLO                         IE JORGE ELIECER GAITAN                 4000105520000684500004504COMUNA 4 SUAREZ               
010490502ANTIOQUIA   BELLO                         I.E. SANTA CATALINA                     4000044030000331900002004COMUNA 4 SUAREZ               
010490503ANTIOQUIA   BELLO                         I.E. LA MILAGROSA                       4000042890000362500002104COMUNA 4 SUAREZ               
010490601ANTIOQUIA   BELLO                         I.E. HERNAN VILLA BAENA                 4000077310000413200003106COMUNA 6 BELLAVISTA           
010490602ANTIOQUIA   BELLO                         I.E. GILBERTO ECHEVERRI MEJIA           4000037290000304900001807COMUNA 7 ALTOS DE NIQUIA      
010490603ANTIOQUIA   BELLO                         I.E. CIAL ANTONIO ROLDAN                4000052560000179400001807COMUNA 7 ALTOS DE NIQUIA      
010490604ANTIOQUIA   BELLO                         IE VILLA DEL SOL SEC 1                  4000040620000482300002306COMUNA 6 BELLAVISTA           
010490605ANTIOQUIA   BELLO                         IE VILLA DEL SOL SEC 2                  4000007940000064800000406COMUNA 6 BELLAVISTA           
010490606ANTIOQUIA   BELLO                         IE JOSEFA CAMPOS                        4000024880000406800001707COMUNA 7 ALTOS DE NIQUIA      
010490701ANTIOQUIA   BELLO                         I.E. CONCEJO DE BELLO                   4000052220000411800002408COMUNA 8 NIQUIA               
010490702ANTIOQUIA   BELLO                         I.E FE Y ALEGRIA NUEVA GENERAC          4000059480000257600002208COMUNA 8 NIQUIA               
010490703ANTIOQUIA   BELLO                         COL NUESTRA SEÑORA DE CHIQUINQ          4000033630000463300002108COMUNA 8 NIQUIA               
010490704ANTIOQUIA   BELLO                         BETSABE ESPINAL                         4000034120000280800001608COMUNA 8 NIQUIA               
010490705ANTIOQUIA   BELLO                         I.E. NAVARRA                            4000018760000072800000709COMUNA 9 GUASIMALITO          
010490706ANTIOQUIA   BELLO                         IE NAVARRA SD EL TREBOL                 4000008010000130000000609COMUNA 9 GUASIMALITO          
010490801ANTIOQUIA   BELLO                         I.E. LAS VEGAS                          4000026090000207500001210COMUNA 10 FONTIDUEÑO          
010490802ANTIOQUIA   BELLO                         I.E FONTIDUEÑO JAIME ARANGO R           4000042390000344700002010COMUNA 10 FONTIDUEÑO          
010490803ANTIOQUIA   BELLO                         I.E FEDERICO SIERRA ARANGO              4000064740000484200002911COMUNA 11 ZAMORA              
010490804ANTIOQUIA   BELLO                         I.E. LA GABRIELA                        4000039910000313300001911COMUNA 11 ZAMORA              
010490805ANTIOQUIA   BELLO                         IE ZAMORA CENTENARIO                    4000015690000134300000811COMUNA 11 ZAMORA              
010499001ANTIOQUIA   BELLO                         INSTITUCION EDUCATIVA ANDRES BELLO      50001854800001859000026                                
010499002ANTIOQUIA   BELLO                         CEDENORTE INSTITUTO TECNOLOGICO         50000381100019251000030                                
010499801ANTIOQUIA   BELLO                         CARCEL NACIONAL DE BELLAVISTA           40000005300000377000002                                
010499980ANTIOQUIA   BELLO                         SAN FELIX                               4000012480000119200000712COMUNA 12 SAN FELIX           
010520000ANTIOQUIA   BETANIA                       PUESTO CABECERA MUNICIPAL               40000362600004342000021                                
010529940ANTIOQUIA   BETANIA                       LA LIBIA                                40000019300000236000002                                
010550001ANTIOQUIA   BETULIA                       I.E. SEDE BLANCA CORREA                 40000257200002643000014                                
010550002ANTIOQUIA   BETULIA                       COLISEO IVAN ARANGO ARCILA              40000205100002512000012                                
010559901ANTIOQUIA   BETULIA                       ALTAMIRA                                40000097100001149000006                                
010559905ANTIOQUIA   BETULIA                       CANGREJO                                40000006500000068000001                                
010559909ANTIOQUIA   BETULIA                       LUCIANO RESTREPO                        40000051800000624000003                                
010559985ANTIOQUIA   BETULIA                       YERBAL                                  40000021600000286000002                                
010580101ANTIOQUIA   BOLIVAR                       I.EDU. SAN JOSE DEL CITARA              40000252100002008000012                                
010580102ANTIOQUIA   BOLIVAR                       COLISEO CUBIERTO                        40000493000001776000018                                
010580201ANTIOQUIA   BOLIVAR                       I.EDUCATIVA JOSE MARIA HERRAN           40000074300004478000014                                
010580202ANTIOQUIA   BOLIVAR                       I.E.MARIA AUXILIADORA                   40000233900002922000014                                
010589801ANTIOQUIA   BOLIVAR                       CARCEL                                  40000000600000044000001                                
010589901ANTIOQUIA   BOLIVAR                       ALFONSO LOPEZ                           40000043100000471000003                                
010589908ANTIOQUIA   BOLIVAR                       FARALLONES                              40000050000000557000003                                
010589950ANTIOQUIA   BOLIVAR                       LA LINDA                                40000018400000171000001                                
010610000ANTIOQUIA   BURITICA                      PUESTO CABECERA MUNICIPAL               40000251600002911000014                                
010619901ANTIOQUIA   BURITICA                      URARCO                                  40000011800000167000001                                
010619903ANTIOQUIA   BURITICA                      EL NARANJO                              40000017000000209000001                                
010619904ANTIOQUIA   BURITICA                      GUARCO                                  40000007500000081000001                                
010619905ANTIOQUIA   BURITICA                      TABACAL                                 40000050800000612000003                                
010619913ANTIOQUIA   BURITICA                      LA ANGELINA                             40000007600000107000001                                
010620000ANTIOQUIA   BRICEÑO                       PUESTO CABECERA MUNICIPAL               40000209400002459000012                                
010629917ANTIOQUIA   BRICEÑO                       BUENAVISTA                              40000007400000103000001                                
010629920ANTIOQUIA   BRICEÑO                       BERLIN                                  40000012400000175000001                                
010629922ANTIOQUIA   BRICEÑO                       CHORRILLOS                              40000007900000131000001                                
010629925ANTIOQUIA   BRICEÑO                       EL ANIME                                40000000800000036000001                                
010629930ANTIOQUIA   BRICEÑO                       EL ROBLAL                               40000020000000287000002                                
010629940ANTIOQUIA   BRICEÑO                       CHIRI                                   40000008300000094000001                                
010629950ANTIOQUIA   BRICEÑO                       LAS AURAS                               40000027400000410000002                                
010629960ANTIOQUIA   BRICEÑO                       MORAVIA                                 40000010000000135000001                                
010640000ANTIOQUIA   CACERES                       PUESTO CABECERA MUNICIPAL               40000359400004384000021                                
010649901ANTIOQUIA   CACERES                       GUARUMO                                 40000151100001624000008                                
010649905ANTIOQUIA   CACERES                       EL JARDIN                               40000261000002360000013                                
010649907ANTIOQUIA   CACERES                       MANIZALES                               40000030300000413000002                                
010649913ANTIOQUIA   CACERES                       PUERTO BELGICA                          40000077200000878000005                                
010649929ANTIOQUIA   CACERES                       PIAMONTE                                40000055000000816000004                                
010670000ANTIOQUIA   CAICEDO                       PUESTO CABECERA MUNICIPAL               40000306500003510000017                                
010679923ANTIOQUIA   CAICEDO                       COLISEO CUBIERTO                        40000012200000147000001                                
010700101ANTIOQUIA   CALDAS                        ESC. SANTA MARIA GORETTI                40000369100003803000020                                
010700102ANTIOQUIA   CALDAS                        LICEO JOSE MARIA BERNAL                 40000433100003942000021                                
010700103ANTIOQUIA   CALDAS                        I.E.GABRIEL ECHAVARRIA                  40000209700002369000012                                
010700104ANTIOQUIA   CALDAS                        I.E. JOAQUIN ARISTIZABAL                40000895800000758000025                                
010700105ANTIOQUIA   CALDAS                        CENTRO INTEGRACION CIUDADANA            40000091600000778000005                                
010700201ANTIOQUIA   CALDAS                        ESC. FEDERICO ANGEL                     40000256300003615000016                                
010700202ANTIOQUIA   CALDAS                        ESC. MARIA AUXILIADORA                  40000656600003597000026                                
010700203ANTIOQUIA   CALDAS                        I.E. SANTA INES                         40000111200000842000005                                
010700204ANTIOQUIA   CALDAS                        PARQUE HABITAT DEL SUR                  40000203900002915000013                                
010700205ANTIOQUIA   CALDAS                        IE PEDRO LUIS ALVAREZ C                 40000100600004429000014                                
010700206ANTIOQUIA   CALDAS                        COLISEO                                 40000222600006235000022                                
010730000ANTIOQUIA   CAMPAMENTO                    PUESTO CABECERA MUNICIPAL               40000293600003386000017                                
010739910ANTIOQUIA   CAMPAMENTO                    LA CHIQUITA                             40000013000000179000001                                
010739980ANTIOQUIA   CAMPAMENTO                    SOLITA                                  40000015400000244000002                                
010760000ANTIOQUIA   CAÑASGORDAS                   PUESTO CABECERA MUNICIPAL               40000527800005786000029                                
010769905ANTIOQUIA   CAÑASGORDAS                   CESTILLAL                               40000062700000682000004                                
010769909ANTIOQUIA   CAÑASGORDAS                   JUNTAS DE URAMITA                       40000026100000331000002                                
010769913ANTIOQUIA   CAÑASGORDAS                   LA BALSA                                40000013100000162000001                                
010769922ANTIOQUIA   CAÑASGORDAS                   SAN PASCUAL                             40000042900000605000003                                
010780000ANTIOQUIA   CARACOLI                      PUESTO CABECERA MUNICIPAL               40000216500002333000012                                
010789904ANTIOQUIA   CARACOLI                      CASCARON                                40000006800000071000001                                
010789909ANTIOQUIA   CARACOLI                      EL BAGRE                                40000003500000078000001                                
010789913ANTIOQUIA   CARACOLI                      LA CORTADA                              40000004400000075000001                                
010790000ANTIOQUIA   CARAMANTA                     PUESTO CABECERA MUNICIPAL               40000186500002084000011                                
010799903ANTIOQUIA   CARAMANTA                     ALEGRIAS                                40000027900000355000002                                
010799907ANTIOQUIA   CARAMANTA                     BARRO BLANCO                            40000005700000065000001                                
010799937ANTIOQUIA   CARAMANTA                     SUCRE                                   40000013700000172000001                                
010800101ANTIOQUIA   CAREPA                        INST. EDUC. JOSE MARIA MUÑOZ            40000311800002938000016                                
010800102ANTIOQUIA   CAREPA                        INST. EDUCATIVA COLOMBIA                40000385300001466000014                                
010800103ANTIOQUIA   CAREPA                        CREM CENTRO DE RECURSOS EDUCATIVOS      40000113300001154000006                                
010800104ANTIOQUIA   CAREPA                        IE LA CADENA                            40000048600000409000003                                
010800201ANTIOQUIA   CAREPA                        I.E. LICEO LUIS CARLOS GALAN S          40000228100004929000019                                
010800202ANTIOQUIA   CAREPA                        I.E. ACAIDANA                           40000243400002533000013                                
010800203ANTIOQUIA   CAREPA                        I.E. J.M.M SEDE SAN MARINO              40000293200001847000013                                
010800204ANTIOQUIA   CAREPA                        COLISEO CUBIERTO                        40000180900003222000013                                
010800205ANTIOQUIA   CAREPA                        PLACA POLIDEPORTIVA EL OASIS            40000089100000851000005                                
010809920ANTIOQUIA   CAREPA                        EL SILENCIO                             40000106500001222000006                                
010809930ANTIOQUIA   CAREPA                        PIEDRAS BLANCAS                         40000131600001590000008                                
010809970ANTIOQUIA   CAREPA                        ZUNGO EMBARCADERO                       40000140000001638000008                                
010820101ANTIOQUIA   CARMEN DE VIBORAL             COLISEO MUNICIPAL                       40000497100005960000028                                
010820102ANTIOQUIA   CARMEN DE VIBORAL             CENTRO DE CONVENCIONES                  40000572200002235000021                                
010820201ANTIOQUIA   CARMEN DE VIBORAL             POLIDEPORTIVO MUNICIPAL                 40000440500005313000025                                
010820202ANTIOQUIA   CARMEN DE VIBORAL             IE EL PROGRESO                          40000390100004685000022                                
010829901ANTIOQUIA   CARMEN DE VIBORAL             LA ESPERANZA                            4000001600000015300000101CORREGIMIENTO LA ESPERANZA    
010829902ANTIOQUIA   CARMEN DE VIBORAL             ALTO GRANDE                             4000001010000009000000102CORREGIMIENTO ALTO GRANDE     
010829903ANTIOQUIA   CARMEN DE VIBORAL             LA CHAPA                                4000005550000052500000303CORREGIMIENTO LA CHAPA        
010829904ANTIOQUIA   CARMEN DE VIBORAL             SANTA RITA                              4000000370000006800000104CORREGIMIENTO SANTA RITA      
010829905ANTIOQUIA   CARMEN DE VIBORAL             SANTA INES                              4000001200000013600000105CORREGIMIENTO SANTA INES      
010829915ANTIOQUIA   CARMEN DE VIBORAL             LA MADERA                               4000002770000030800000206CORREGIMIENTO LA MADERA       
010829940ANTIOQUIA   CARMEN DE VIBORAL             AGUAS CLARAS                            4000008760000086100000507CORREGIMIENTO AGUAS CLARAS    
010850000ANTIOQUIA   CAROLINA                      PUESTO CABECERA MUNICIPAL               40000209800002113000011                                
010859909ANTIOQUIA   CAROLINA                      GUANACAS                                40000001300000013000001                                
010880101ANTIOQUIA   CAUCASIA                      INSTITUCION EDUCATIVA SANTO DOMINGO     40000306300002561000015                                
010880102ANTIOQUIA   CAUCASIA                      IE SANTO DOMINGO NUEVA SANTA H          40000290900001625000012                                
010880103ANTIOQUIA   CAUCASIA                      I.E. LICEO CAUCASIA STA HELENA          40000094600000848000005                                
010880104ANTIOQUIA   CAUCASIA                      INSTITUCION EDUCATIVA LICEO CAUCASIA    40000397200004214000021                                
010880105ANTIOQUIA   CAUCASIA                      INSTITUCION EDUCATIVA CONCEJO MUNICIPAL 40000064500000809000004                                
010880106ANTIOQUIA   CAUCASIA                      I.E. STA TERESITA LOMA FRESCA           40000147800001324000008                                
010880107ANTIOQUIA   CAUCASIA                      I.E. STA TERESITA CENTRO                40000237500003578000016                                
010880108ANTIOQUIA   CAUCASIA                      I.E.ANTIOQUIA LA GRANDE                 40000024200000219000002                                
010880201ANTIOQUIA   CAUCASIA                      I.E. LA MISERICORDIA SN RAFAEL          40000093600001184000006                                
010880202ANTIOQUIA   CAUCASIA                      COL MIL EL TESORO DEL SABER             40000188400001378000009                                
010880203ANTIOQUIA   CAUCASIA                      I.E. LA MISERICORDIA PPAL               40000459100003241000020                                
010880204ANTIOQUIA   CAUCASIA                      INST.EDUC.MARCO FIDEL SUAREZ            40000402400003719000020                                
010880205ANTIOQUIA   CAUCASIA                      I.E. DIVINO NIÑO PRINCIPAL              40000321800003540000018                                
010880206ANTIOQUIA   CAUCASIA                      I.E. DIVINO NIÑO SEC CARACOLI           40000227000002014000011                                
010880207ANTIOQUIA   CAUCASIA                      I.E. DIVINO NIÑO SEDE SAN JOSE          40000052900000444000003                                
010880208ANTIOQUIA   CAUCASIA                      INSTITUCION EDUCATIVA LAS MALVINAS      40000139200001248000007                                
010889801ANTIOQUIA   CAUCASIA                      CARCEL                                  40000000500000036000001                                
010889905ANTIOQUIA   CAUCASIA                      CUTURU                                  40000079000000909000005                                
010889906ANTIOQUIA   CAUCASIA                      EL PANDO                                40000025500000297000002                                
010889910ANTIOQUIA   CAUCASIA                      LA ILUSION                              40000013600000171000001                                
010889917ANTIOQUIA   CAUCASIA                      MARGENTO                                40000037100000499000003                                
010889925ANTIOQUIA   CAUCASIA                      PALANCA                                 40000011100000146000001                                
010889927ANTIOQUIA   CAUCASIA                      PUERTO COLOMBIA                         40000014100000206000001                                
010889928ANTIOQUIA   CAUCASIA                      PALOMAR                                 40000017000000227000002                                
010889940ANTIOQUIA   CAUCASIA                      PUERTO GLORIA                           40000033600000518000003                                
010889960ANTIOQUIA   CAUCASIA                      PUERTO TRIANA                           40000013000000270000002                                
010889970ANTIOQUIA   CAUCASIA                      SANTA ROSITA                            40000012300000152000001                                
010910000ANTIOQUIA   CISNEROS                      PUESTO CABECERA MUNICIPAL               40000599600006096000031                                
010940000ANTIOQUIA   COCORNA                       PUESTO CABECERA MUNICIPAL               40000568500005706000029                                
010949902ANTIOQUIA   COCORNA                       AGUALINDA                               40000003300000074000001                                
010949903ANTIOQUIA   COCORNA                       LA PIÑUELA                              40000055100000580000003                                
010949904ANTIOQUIA   COCORNA                       CRUCES                                  40000026200000289000002                                
010949913ANTIOQUIA   COCORNA                       LA FLORIDA                              40000003700000051000001                                
010949930ANTIOQUIA   COCORNA                       LA GRANJA                               40000020800000194000002                                
010949955ANTIOQUIA   COCORNA                       LA PRIMAVERA                            40000006400000105000001                                
010949958ANTIOQUIA   COCORNA                       PAILANIA                                40000014500000185000001                                
010970000ANTIOQUIA   CONCEPCION                    PUESTO CABECERA MUNICIPAL               40000213700002250000012                                
011000000ANTIOQUIA   CONCORDIA                     PUESTO CABECERA MUNICIPAL               40000716000007781000038                                
011009901ANTIOQUIA   CONCORDIA                     EL SOCORRO                              40000024500000273000002                                
011009905ANTIOQUIA   CONCORDIA                     MORELIA                                 40000019800000215000002                                
011009907ANTIOQUIA   CONCORDIA                     MORITOS                                 40000019500000240000002                                
011030101ANTIOQUIA   COPACABANA                    IE GABRIELA MISTRAL                     40000052800000623000003                                
011030102ANTIOQUIA   COPACABANA                    IE PRESBITERO B. MONTOYA                40000403300003184000019                                
011030103ANTIOQUIA   COPACABANA                    COL COOP JUAN DEL CORRAL                40000225800000983000009                                
011030104ANTIOQUIA   COPACABANA                    IE VILLANUEVA                           40000306500004885000021                                
011030105ANTIOQUIA   COPACABANA                    CASA DE LA CULTURA                      40000099100000798000005                                
011030201ANTIOQUIA   COPACABANA                    I.E ASUNCION PRIMARIA                   40000033200002362000007                                
011030202ANTIOQUIA   COPACABANA                    COL JOSE MIGUEL RESTREPO                40000746800006199000035                                
011030203ANTIOQUIA   COPACABANA                    IE CAMILO TORRES                        40000411500003214000019                                
011030204ANTIOQUIA   COPACABANA                    IE ASUNCION SECUNDARIA                  40000257100001330000010                                
011030301ANTIOQUIA   COPACABANA                    CTRO EDUC. SANTA CLARA                  40000174200001825000010                                
011030302ANTIOQUIA   COPACABANA                    LICEO SAN LUIS GONZAGA                  40000533700004887000026                                
011030303ANTIOQUIA   COPACABANA                    IE LA TRINIDAD                          40000445300004955000024                                
011030304ANTIOQUIA   COPACABANA                    ESC. URB. LA MISERICORDIA               40000054100000489000003                                
011039901ANTIOQUIA   COPACABANA                    I.E. SAN RAFAEL                         40000014000000102000001                                
011060101ANTIOQUIA   CHIGORODO                     ESC. SIMON BOLIVAR                      40000339500004202000020                                
011060102ANTIOQUIA   CHIGORODO                     ESC. BRISAS DEL RIO                     40000270600002210000013                                
011060201ANTIOQUIA   CHIGORODO                     INSTITUCION EDUCATIVA CHIGORODO         40000451100005545000026                                
011060202ANTIOQUIA   CHIGORODO                     LICEO MUNICIPAL                         40000821700006444000038                                
011069001ANTIOQUIA   CHIGORODO                     INST.EDUCATIVA LOS ANDES                50000608900005886000016                                
011069905ANTIOQUIA   CHIGORODO                     BARRANQUILLITA                          40000050900000477000003                                
011090001ANTIOQUIA   DABEIBA                       COLISEO MUNICIPAL DESTREZAS DABEIBANAS  40000636900003711000026                                
011090002ANTIOQUIA   DABEIBA                       ESC JUAN HENRIQUE WHITE                 40000145800004816000016                                
011099901ANTIOQUIA   DABEIBA                       CAMPARRUSIA                             40000049400000597000003                                
011099902ANTIOQUIA   DABEIBA                       LLANO GRANDE LA NUEVA HABANA            40000013600000126000001                                
011099904ANTIOQUIA   DABEIBA                       CRUCES URAMA                            40000014200000247000001                                
011099909ANTIOQUIA   DABEIBA                       URAMAGRANDE                             40000037800000488000003                                
011099910ANTIOQUIA   DABEIBA                       LA BALSITA - ARGELIA                    40000015600000219000001                                
011099970ANTIOQUIA   DABEIBA                       SANTA TERESA                            40000013700000125000001                                
011120000ANTIOQUIA   DON MATIAS                    PUESTO CABECERA MUNICIPAL               40000866600007943000043                                
011129901ANTIOQUIA   DON MATIAS                    BELLAVISTA                              40000037200000439000003                                
011129905ANTIOQUIA   DON MATIAS                    RIO GRANDE                              40000030700000437000002                                
011150000ANTIOQUIA   EBEJICO                       PUESTO CABECERA MUNICIPAL               40000339200003768000019                                
011159905ANTIOQUIA   EBEJICO                       BRASIL                                  4000005420000058100000301CORREGIMIENTO BRASIL          
011159906ANTIOQUIA   EBEJICO                       EL ZARZAL                               4000000540000005000000105CORREGIMIENTO EL ZARZAL       
011159907ANTIOQUIA   EBEJICO                       GUAYABAL                                4000000870000011900000102CORREGIMIENTO GUAYABAL        
011159909ANTIOQUIA   EBEJICO                       LA CLARA                                4000002150000029100000203CORREGIMIENTO LA CLARA        
011159925ANTIOQUIA   EBEJICO                       SEVILLA                                 4000011730000124000000704CORREGIMIENTO SEVILLA         
011170101ANTIOQUIA   EL BAGRE                      LICEO EL BAGRE                          40000333000005851000024                                
011170102ANTIOQUIA   EL BAGRE                      COLEGIO LA ESMERALDA                    40000271300003718000017                                
011170201ANTIOQUIA   EL BAGRE                      ESCUELA PORTUGAL                        40000332500002073000014                                
011170202ANTIOQUIA   EL BAGRE                      COLEGIO 20 DE JULIO                     40000602800004180000026                                
011179801ANTIOQUIA   EL BAGRE                      CARCEL MUNICIPAL                        40000000000000001000001                                
011179960ANTIOQUIA   EL BAGRE                      PUERTO CLAVER                           40000232600002653000013                                
011179965ANTIOQUIA   EL BAGRE                      PUERTO LOPEZ                            40000134600001671000008                                
011180000ANTIOQUIA   ENTRERRIOS                    PUESTO CABECERA MUNICIPAL               40000435400004972000024                                
011210101ANTIOQUIA   ENVIGADO                      COL LA SALLE DE ENVIGADO                40000783800006369000037                                
011210102ANTIOQUIA   ENVIGADO                      COL UNID EDUC SAN MARCOS                40000700600005074000031                                
011210103ANTIOQUIA   ENVIGADO                      CTRO DE ENCUENTRO CIUDADANO SAN MARCOS  40000201500001979000011                                
011210104ANTIOQUIA   ENVIGADO                      COLEGIO BENEDITINO DE SANTA MARIA       40000066100000480000003                                
011210201ANTIOQUIA   ENVIGADO                      IE MARCELIANO VELEZ                     40000653400007966000037                                
011210202ANTIOQUIA   ENVIGADO                      LICEO FRANCISCO RESTREPO MOLINA         40000738700008925000042                                
011210203ANTIOQUIA   ENVIGADO                      CENTRO VIDA ATARDECER                   40000102100000935000005                                
011210204ANTIOQUIA   ENVIGADO                      COLEGIO COLOMBO BRITANICO               40000073400000488000004                                
011210301ANTIOQUIA   ENVIGADO                      IE SAN VICENTE DE PAUL                  40000754100005484000034                                
011210302ANTIOQUIA   ENVIGADO                      IE DARIO DE BEDOUT                      40000437900001214000015                                
011210303ANTIOQUIA   ENVIGADO                      IE MARIA PAUSSEPIN                      40000130300001305000007                                
011210401ANTIOQUIA   ENVIGADO                      ESCUELA PIO XII                         40000291600008683000030                                
011210402ANTIOQUIA   ENVIGADO                      ESC. SUP TECN. DE ARTES DEBORA ARANGO   40000561800002562000021                                
011210403ANTIOQUIA   ENVIGADO                      ESC FERNANDO GONZALEZ                   40001075200003244000036                                
011210404ANTIOQUIA   ENVIGADO                      IE MANUEL URIBE ANGEL (MUA)             40000580400007330000034                                
011210405ANTIOQUIA   ENVIGADO                      I E ALEJANDRO VELEZ BARRIENTOS          40000066400000497000003                                
011210501ANTIOQUIA   ENVIGADO                      POLIDEPORTIVO SUR DE ENVIGADO           40000494200004346000024                                
011210502ANTIOQUIA   ENVIGADO                      URB. MULTIFAMILIAR  SEÑORIAL            40000338600002979000017                                
011210503ANTIOQUIA   ENVIGADO                      IE LA PAZ                               40000583400004060000026                                
011210504ANTIOQUIA   ENVIGADO                      IE LETICIA ARANGO DE AVENDAÑO           40000393500002490000017                                
011210505ANTIOQUIA   ENVIGADO                      IE LA PAZ SD PRIMARIA  JHON F. KENNEDY  40000494900006035000028                                
011210506ANTIOQUIA   ENVIGADO                      CANCHA LA MERCED                        40000058400000476000003                                
011210601ANTIOQUIA   ENVIGADO                      IE COMERCIAL DE ENVIGADO                40000457800004085000022                                
011210602ANTIOQUIA   ENVIGADO                      INST UNIVERSITARIA ENVIGADO             40000786900006722000038                                
011210603ANTIOQUIA   ENVIGADO                      IE EL SALADO                            40000324000002932000016                                
011210604ANTIOQUIA   ENVIGADO                      COL CUMBRES                             40000470200004243000023                                
011210605ANTIOQUIA   ENVIGADO                      CENTRO   EDUCATIVO   LA MORENA          40000009800000081000001                                
011219001ANTIOQUIA   ENVIGADO                      JOSE MANUEL RESTREPO VELEZ              50000921300009452000024                                
011219801ANTIOQUIA   ENVIGADO                      CARCEL MUNICIPAL DE ENVIGADO            40000000500000047000001                                
011219901ANTIOQUIA   ENVIGADO                      LAS PALMAS CENTRO DE SALUD              40000208400002101000011                                
011219902ANTIOQUIA   ENVIGADO                      PANTANILLO IE MARTIN EDUARDO RIOS LLANOS40000017000000144000001                                
011240001ANTIOQUIA   FREDONIA                      ESC NORMAL SUPERIOR MARIANO OSPINA SEC P40000584100006118000031                                
011240002ANTIOQUIA   FREDONIA                      ESCUELA MARCO FIDEL SUAREZ              40000140900001586000008                                
011249801ANTIOQUIA   FREDONIA                      CARCEL                                  40000000900000053000001                                
011249901ANTIOQUIA   FREDONIA                      MINAS                                   40000021800000213000002                                
011249902ANTIOQUIA   FREDONIA                      LA GARRUCHA                             40000013300000143000001                                
011249903ANTIOQUIA   FREDONIA                      LOS PALOMOS                             40000032300000325000002                                
011249904ANTIOQUIA   FREDONIA                      MARSELLA                                40000023200000242000002                                
011249905ANTIOQUIA   FREDONIA                      PUENTE IGLESIAS                         40000023600000244000002                                
011249920ANTIOQUIA   FREDONIA                      EL ZANCUDO                              40000024100000246000002                                
011249970ANTIOQUIA   FREDONIA                      PIEDRA VERDE                            40000016600000222000001                                
011270000ANTIOQUIA   FRONTINO                      PUESTO CABECERA MUNICIPAL               40000566900005803000030                                
011279901ANTIOQUIA   FRONTINO                      CARAUTA                                 40000013300000208000001                                
011279903ANTIOQUIA   FRONTINO                      CHONTADURO                              40000007200000099000001                                
011279905ANTIOQUIA   FRONTINO                      EL CERRO                                40000008300000105000001                                
011279907ANTIOQUIA   FRONTINO                      EL MADERO                               40000006000000076000001                                
011279909ANTIOQUIA   FRONTINO                      FUEMIA                                  40000014100000198000001                                
011279910ANTIOQUIA   FRONTINO                      JENGAMECODA                             40000004300000049000001                                
011279913ANTIOQUIA   FRONTINO                      MURRI                                   40000097100001075000006                                
011279914ANTIOQUIA   FRONTINO                      MUSINGA                                 40000027800000345000002                                
011279917ANTIOQUIA   FRONTINO                      PONTON                                  40000014600000170000001                                
011279919ANTIOQUIA   FRONTINO                      NOBOGA                                  40000011900000150000001                                
011279921ANTIOQUIA   FRONTINO                      NUTIBARA                                40000081100000897000005                                
011279955ANTIOQUIA   FRONTINO                      PANTANOS                                40000002700000034000001                                
011279958ANTIOQUIA   FRONTINO                      PARQUE LAS ORQUIDEAS                    40000002100000033000001                                
011300000ANTIOQUIA   GIRALDO                       PUESTO CABECERA MUNICIPAL               40000175800001919000010                                
011309907ANTIOQUIA   GIRALDO                       I.E.R SANTA ROSA DE LIMA                40000036400000365000002                                
011309930ANTIOQUIA   GIRALDO                       IE SANTA ROSA DE LIMA SD F. HINCAPIE    40000013600000128000001                                
011330101ANTIOQUIA   GIRARDOTA                     NTRA. SRA. DE LA PRESENTACION           40000264500003829000017                                
011330102ANTIOQUIA   GIRARDOTA                     ESCUELA COLOMBIA                        40000639700005038000030                                
011330201ANTIOQUIA   GIRARDOTA                     ATANASIO GIRARDOT ESC LA NUEVA          40000195900007797000025                                
011330202ANTIOQUIA   GIRARDOTA                     COL JUAN BERNARDONE                     40000808300002816000028                                
011330203ANTIOQUIA   GIRARDOTA                     IE EMILIANO GARCIA                      40000512400005217000027                                
011339910ANTIOQUIA   GIRARDOTA                     CABILDO                                 40000092100000948000005                                
011339920ANTIOQUIA   GIRARDOTA                     LA MANGA ARRIBA                         40000068100000725000004                                
011339980ANTIOQUIA   GIRARDOTA                     SAN ANDRES                              40000118300001131000006                                
011360000ANTIOQUIA   GOMEZ PLATA                   PUESTO CABECERA MUNICIPAL               40000373500003971000020                                
011369901ANTIOQUIA   GOMEZ PLATA                   EL SALTO                                4000002940000032600000201CORREGIMIENTO EL SALTO        
011369905ANTIOQUIA   GOMEZ PLATA                   SAN MATIAS                              4000001700000019500000102CORREGIMIENTO SAN MATIAS      
011369920ANTIOQUIA   GOMEZ PLATA                   LA ESTRELLA                             4000001020000010900000103CORREGIMIENTO LA ESTRELLA     
011390000ANTIOQUIA   GRANADA                       PUESTO CABECERA MUNICIPAL               40000462100004783000024                                
011399901ANTIOQUIA   GRANADA                       SANTA ANA                               4000002150000030900000201CORREGIMIENTO SANTA ANA       
011399940ANTIOQUIA   GRANADA                       LOS MEDIOS                              40000010200000113000001                                
011400000ANTIOQUIA   GUADALUPE                     PUESTO CABECERA MUNICIPAL               40000245500002658000013                                
011409945ANTIOQUIA   GUADALUPE                     GUADALUPE IV                            40000026400000291000002                                
011409975ANTIOQUIA   GUADALUPE                     MALABRIGO                               40000003400000056000001                                
011409985ANTIOQUIA   GUADALUPE                     SAN JUAN                                40000004300000047000001                                
011420101ANTIOQUIA   GUARNE                        INST. EDUCATIVA SANTO TOMAS             40000331900004687000021                                
011420102ANTIOQUIA   GUARNE                        COLISEO SANTO TOMAS                     40000334400001636000013                                
011420103ANTIOQUIA   GUARNE                        INST. EDUCATIVA EL ZANGO                40000269300000597000009                                
011420201ANTIOQUIA   GUARNE                        I.E. LA INMACULADA CONCEPCION           40000443900004783000024                                
011420202ANTIOQUIA   GUARNE                        COLEGIO SAN ANTONIO                     40000292700004851000020                                
011420203ANTIOQUIA   GUARNE                        I.E. CHAPARRAL                          40000107500001012000006                                
011429915ANTIOQUIA   GUARNE                        ALTO DE LA VIRGEN                       40000041600000474000003                                
011429920ANTIOQUIA   GUARNE                        BARRO BLANCO                            40000039200000376000002                                
011429940ANTIOQUIA   GUARNE                        LA HONDA                                40000042300000389000003                                
011429945ANTIOQUIA   GUARNE                        PIEDRAS BLANCAS                         40000050300000479000003                                
011429980ANTIOQUIA   GUARNE                        YOLOMBAL                                40000023900000243000002                                
011450000ANTIOQUIA   GUATAPE                       PUESTO CABECERA MUNICIPAL               40000384400003751000020                                
011480000ANTIOQUIA   HELICONIA                     PUESTO CABECERA MUNICIPAL               40000179600001952000010                                
011489901ANTIOQUIA   HELICONIA                     I.E. ALTO DEL CORRAL                    40000035800000423000002                                
011489904ANTIOQUIA   HELICONIA                     LA PAVA                                 40000011500000121000001                                
011489905ANTIOQUIA   HELICONIA                     PUEBLITO                                40000032300000380000002                                
011489913ANTIOQUIA   HELICONIA                     LLANOS DE SAN JOSE                      40000027600000329000002                                
011500000ANTIOQUIA   HISPANIA                      PUESTO CABECERA MUNICIPAL               40000249800002734000014                                
011509925ANTIOQUIA   HISPANIA                      EL LLANETE                              40000001800000025000001                                
011510101ANTIOQUIA   ITAGUI                        IDEM DIEGO ECHAVARRIA MISA              4000091600000622700004001COMUNA 1                      
011510102ANTIOQUIA   ITAGUI                        I.E. JUAN N. CADAVID                    4000026950000502300002001COMUNA 1                      
011510103ANTIOQUIA   ITAGUI                        COLEGIO EL ROSARIO                      4000069030000588100003301COMUNA 1                      
011510201ANTIOQUIA   ITAGUI                        ESC. ANTONIO JOSE DE SUCRE              4000051970001122000004201COMUNA 1                      
011510202ANTIOQUIA   ITAGUI                        IE AVELINO SALDARRIAGA GAVIRIA          4000099460000353700003501COMUNA 1                      
011510301ANTIOQUIA   ITAGUI                        I.E. ISOLDA ECHAVARRIA                  4000040230000349700002002COMUNA 2                      
011510302ANTIOQUIA   ITAGUI                        ESCUELA JOHN F. KENNEDY                 4000057110000685400003202COMUNA 2                      
011510303ANTIOQUIA   ITAGUI                        ESCUELA FELIPE DE RESTREPO              4000064340000394100002702COMUNA 2                      
011510304ANTIOQUIA   ITAGUI                        I.E. LUIS CARLOS GALAN                  4000014900000122300000703COMUNA 3                      
011510401ANTIOQUIA   ITAGUI                        ESCUELA SAN FRANCISCO                   4000060170000483100002803COMUNA 3                      
011510402ANTIOQUIA   ITAGUI                        ESCUELA ESTEBAN OCHOA                   4000055100000453600002603COMUNA 3                      
011510501ANTIOQUIA   ITAGUI                        ESCUELA SIMON BOLIVAR                   4000052640000451100002504COMUNA 4                      
011510502ANTIOQUIA   ITAGUI                        I.E. ENRIQUE VELEZ ESCOBAR              4000067630000573600003204COMUNA 4                      
011510503ANTIOQUIA   ITAGUI                        ESC. MARCELIANA SALDARRIAGA             4000066870000543300003104COMUNA 4                      
011510601ANTIOQUIA   ITAGUI                        ESCUELA ARNULFO FLOREZ                  4000064760000513600003004COMUNA 4                      
011510602ANTIOQUIA   ITAGUI                        I.E. PEDRO ESTRADA                      4000037600000398300002004COMUNA 4                      
011510603ANTIOQUIA   ITAGUI                        I.E. BENEDIKTA ZUR NIEDEN               4000022680000174700001104COMUNA 4                      
011510604ANTIOQUIA   ITAGUI                        I.E. ORESTES SINDICCE                   4000018550000154200000904COMUNA 4                      
011510701ANTIOQUIA   ITAGUI                        ESCUELA LOMA LINDA                      4000048760000403400002305COMUNA 5                      
011510702ANTIOQUIA   ITAGUI                        ESCUELA MARIA BERNAL                    4000036710000183500001405COMUNA 5                      
